{
  "_format": "hh-sol-artifact-1",
  "contractName": "BasicNFT",
  "sourceName": "contracts/BasicNFT.sol",
  "abi": [
    {
      "inputs": [],
      "stateMutability": "nonpayable",
      "type": "constructor"
    },
    {
      "inputs": [
        {
          "internalType": "address",
          "name": "sender",
          "type": "address"
        },
        {
          "internalType": "uint256",
          "name": "tokenId",
          "type": "uint256"
        },
        {
          "internalType": "address",
          "name": "owner",
          "type": "address"
        }
      ],
      "name": "ERC721IncorrectOwner",
      "type": "error"
    },
    {
      "inputs": [
        {
          "internalType": "address",
          "name": "operator",
          "type": "address"
        },
        {
          "internalType": "uint256",
          "name": "tokenId",
          "type": "uint256"
        }
      ],
      "name": "ERC721InsufficientApproval",
      "type": "error"
    },
    {
      "inputs": [
        {
          "internalType": "address",
          "name": "approver",
          "type": "address"
        }
      ],
      "name": "ERC721InvalidApprover",
      "type": "error"
    },
    {
      "inputs": [
        {
          "internalType": "address",
          "name": "operator",
          "type": "address"
        }
      ],
      "name": "ERC721InvalidOperator",
      "type": "error"
    },
    {
      "inputs": [
        {
          "internalType": "address",
          "name": "owner",
          "type": "address"
        }
      ],
      "name": "ERC721InvalidOwner",
      "type": "error"
    },
    {
      "inputs": [
        {
          "internalType": "address",
          "name": "receiver",
          "type": "address"
        }
      ],
      "name": "ERC721InvalidReceiver",
      "type": "error"
    },
    {
      "inputs": [
        {
          "internalType": "address",
          "name": "sender",
          "type": "address"
        }
      ],
      "name": "ERC721InvalidSender",
      "type": "error"
    },
    {
      "inputs": [
        {
          "internalType": "uint256",
          "name": "tokenId",
          "type": "uint256"
        }
      ],
      "name": "ERC721NonexistentToken",
      "type": "error"
    },
    {
      "anonymous": false,
      "inputs": [
        {
          "indexed": true,
          "internalType": "address",
          "name": "owner",
          "type": "address"
        },
        {
          "indexed": true,
          "internalType": "address",
          "name": "approved",
          "type": "address"
        },
        {
          "indexed": true,
          "internalType": "uint256",
          "name": "tokenId",
          "type": "uint256"
        }
      ],
      "name": "Approval",
      "type": "event"
    },
    {
      "anonymous": false,
      "inputs": [
        {
          "indexed": true,
          "internalType": "address",
          "name": "owner",
          "type": "address"
        },
        {
          "indexed": true,
          "internalType": "address",
          "name": "operator",
          "type": "address"
        },
        {
          "indexed": false,
          "internalType": "bool",
          "name": "approved",
          "type": "bool"
        }
      ],
      "name": "ApprovalForAll",
      "type": "event"
    },
    {
      "anonymous": false,
      "inputs": [
        {
          "indexed": true,
          "internalType": "address",
          "name": "from",
          "type": "address"
        },
        {
          "indexed": true,
          "internalType": "address",
          "name": "to",
          "type": "address"
        },
        {
          "indexed": true,
          "internalType": "uint256",
          "name": "tokenId",
          "type": "uint256"
        }
      ],
      "name": "Transfer",
      "type": "event"
    },
    {
      "inputs": [],
      "name": "TOKEN_URI",
      "outputs": [
        {
          "internalType": "string",
          "name": "",
          "type": "string"
        }
      ],
      "stateMutability": "view",
      "type": "function"
    },
    {
      "inputs": [
        {
          "internalType": "address",
          "name": "to",
          "type": "address"
        },
        {
          "internalType": "uint256",
          "name": "tokenId",
          "type": "uint256"
        }
      ],
      "name": "approve",
      "outputs": [],
      "stateMutability": "nonpayable",
      "type": "function"
    },
    {
      "inputs": [
        {
          "internalType": "address",
          "name": "owner",
          "type": "address"
        }
      ],
      "name": "balanceOf",
      "outputs": [
        {
          "internalType": "uint256",
          "name": "",
          "type": "uint256"
        }
      ],
      "stateMutability": "view",
      "type": "function"
    },
    {
      "inputs": [
        {
          "internalType": "uint256",
          "name": "tokenId",
          "type": "uint256"
        }
      ],
      "name": "getApproved",
      "outputs": [
        {
          "internalType": "address",
          "name": "",
          "type": "address"
        }
      ],
      "stateMutability": "view",
      "type": "function"
    },
    {
      "inputs": [],
      "name": "getTokenCounter",
      "outputs": [
        {
          "internalType": "uint256",
          "name": "",
          "type": "uint256"
        }
      ],
      "stateMutability": "view",
      "type": "function"
    },
    {
      "inputs": [
        {
          "internalType": "address",
          "name": "owner",
          "type": "address"
        },
        {
          "internalType": "address",
          "name": "operator",
          "type": "address"
        }
      ],
      "name": "isApprovedForAll",
      "outputs": [
        {
          "internalType": "bool",
          "name": "",
          "type": "bool"
        }
      ],
      "stateMutability": "view",
      "type": "function"
    },
    {
      "inputs": [],
      "name": "mintNFT",
      "outputs": [
        {
          "internalType": "uint256",
          "name": "",
          "type": "uint256"
        }
      ],
      "stateMutability": "nonpayable",
      "type": "function"
    },
    {
      "inputs": [],
      "name": "name",
      "outputs": [
        {
          "internalType": "string",
          "name": "",
          "type": "string"
        }
      ],
      "stateMutability": "view",
      "type": "function"
    },
    {
      "inputs": [
        {
          "internalType": "uint256",
          "name": "tokenId",
          "type": "uint256"
        }
      ],
      "name": "ownerOf",
      "outputs": [
        {
          "internalType": "address",
          "name": "",
          "type": "address"
        }
      ],
      "stateMutability": "view",
      "type": "function"
    },
    {
      "inputs": [
        {
          "internalType": "address",
          "name": "from",
          "type": "address"
        },
        {
          "internalType": "address",
          "name": "to",
          "type": "address"
        },
        {
          "internalType": "uint256",
          "name": "tokenId",
          "type": "uint256"
        }
      ],
      "name": "safeTransferFrom",
      "outputs": [],
      "stateMutability": "nonpayable",
      "type": "function"
    },
    {
      "inputs": [
        {
          "internalType": "address",
          "name": "from",
          "type": "address"
        },
        {
          "internalType": "address",
          "name": "to",
          "type": "address"
        },
        {
          "internalType": "uint256",
          "name": "tokenId",
          "type": "uint256"
        },
        {
          "internalType": "bytes",
          "name": "data",
          "type": "bytes"
        }
      ],
      "name": "safeTransferFrom",
      "outputs": [],
      "stateMutability": "nonpayable",
      "type": "function"
    },
    {
      "inputs": [
        {
          "internalType": "address",
          "name": "operator",
          "type": "address"
        },
        {
          "internalType": "bool",
          "name": "approved",
          "type": "bool"
        }
      ],
      "name": "setApprovalForAll",
      "outputs": [],
      "stateMutability": "nonpayable",
      "type": "function"
    },
    {
      "inputs": [
        {
          "internalType": "bytes4",
          "name": "interfaceId",
          "type": "bytes4"
        }
      ],
      "name": "supportsInterface",
      "outputs": [
        {
          "internalType": "bool",
          "name": "",
          "type": "bool"
        }
      ],
      "stateMutability": "view",
      "type": "function"
    },
    {
      "inputs": [],
      "name": "symbol",
      "outputs": [
        {
          "internalType": "string",
          "name": "",
          "type": "string"
        }
      ],
      "stateMutability": "view",
      "type": "function"
    },
    {
      "inputs": [
        {
          "internalType": "uint256",
          "name": "",
          "type": "uint256"
        }
      ],
      "name": "tokenURI",
      "outputs": [
        {
          "internalType": "string",
          "name": "",
          "type": "string"
        }
      ],
      "stateMutability": "view",
      "type": "function"
    },
    {
      "inputs": [
        {
          "internalType": "address",
          "name": "from",
          "type": "address"
        },
        {
          "internalType": "address",
          "name": "to",
          "type": "address"
        },
        {
          "internalType": "uint256",
          "name": "tokenId",
          "type": "uint256"
        }
      ],
      "name": "transferFrom",
      "outputs": [],
      "stateMutability": "nonpayable",
      "type": "function"
    }
  ],
  "bytecode": "0x60806040523480156200001157600080fd5b506040518060400160405280600581526020017f446f6769650000000000000000000000000000000000000000000000000000008152506040518060400160405280600381526020017f444f47000000000000000000000000000000000000000000000000000000000081525081600090816200008f91906200032c565b508060019081620000a191906200032c565b505050600060068190555062000413565b600081519050919050565b7f4e487b7100000000000000000000000000000000000000000000000000000000600052604160045260246000fd5b7f4e487b7100000000000000000000000000000000000000000000000000000000600052602260045260246000fd5b600060028204905060018216806200013457607f821691505b6020821081036200014a5762000149620000ec565b5b50919050565b60008190508160005260206000209050919050565b60006020601f8301049050919050565b600082821b905092915050565b600060088302620001b47fffffffffffffffffffffffffffffffffffffffffffffffffffffffffffffffff8262000175565b620001c0868362000175565b95508019841693508086168417925050509392505050565b6000819050919050565b6000819050919050565b60006200020d620002076200020184620001d8565b620001e2565b620001d8565b9050919050565b6000819050919050565b6200022983620001ec565b62000241620002388262000214565b84845462000182565b825550505050565b600090565b6200025862000249565b620002658184846200021e565b505050565b5b818110156200028d57620002816000826200024e565b6001810190506200026b565b5050565b601f821115620002dc57620002a68162000150565b620002b18462000165565b81016020851015620002c1578190505b620002d9620002d08562000165565b8301826200026a565b50505b505050565b600082821c905092915050565b60006200030160001984600802620002e1565b1980831691505092915050565b60006200031c8383620002ee565b9150826002028217905092915050565b6200033782620000b2565b67ffffffffffffffff811115620003535762000352620000bd565b5b6200035f82546200011b565b6200036c82828562000291565b600060209050601f831160018114620003a457600084156200038f578287015190505b6200039b85826200030e565b8655506200040b565b601f198416620003b48662000150565b60005b82811015620003de57848901518255600182019150602085019450602081019050620003b7565b86831015620003fe5784890151620003fa601f891682620002ee565b8355505b6001600288020188555050505b505050505050565b611c3c80620004236000396000f3fe608060405234801561001057600080fd5b50600436106101005760003560e01c80636e02007d11610097578063a22cb46511610066578063a22cb465146102af578063b88d4fde146102cb578063c87b56dd146102e7578063e985e9c51461031757610100565b80636e02007d1461022557806370a082311461024357806378ce90351461027357806395d89b411461029157610100565b806314f710fe116100d357806314f710fe1461019f57806323b872dd146101bd57806342842e0e146101d95780636352211e146101f557610100565b806301ffc9a71461010557806306fdde0314610135578063081812fc14610153578063095ea7b314610183575b600080fd5b61011f600480360381019061011a919061145b565b610347565b60405161012c91906114a3565b60405180910390f35b61013d610429565b60405161014a919061154e565b60405180910390f35b61016d600480360381019061016891906115a6565b6104bb565b60405161017a9190611614565b60405180910390f35b61019d6004803603810190610198919061165b565b6104d7565b005b6101a76104ed565b6040516101b491906116aa565b60405180910390f35b6101d760048036038101906101d291906116c5565b61051d565b005b6101f360048036038101906101ee91906116c5565b61061f565b005b61020f600480360381019061020a91906115a6565b61063f565b60405161021c9190611614565b60405180910390f35b61022d610651565b60405161023a91906116aa565b60405180910390f35b61025d60048036038101906102589190611718565b61065b565b60405161026a91906116aa565b60405180910390f35b61027b610715565b604051610288919061154e565b60405180910390f35b610299610731565b6040516102a6919061154e565b60405180910390f35b6102c960048036038101906102c49190611771565b6107c3565b005b6102e560048036038101906102e091906118e6565b6107d9565b005b61030160048036038101906102fc91906115a6565b6107f6565b60405161030e919061154e565b60405180910390f35b610331600480360381019061032c9190611969565b610818565b60405161033e91906114a3565b60405180910390f35b60007f80ac58cd000000000000000000000000000000000000000000000000000000007bffffffffffffffffffffffffffffffffffffffffffffffffffffffff1916827bffffffffffffffffffffffffffffffffffffffffffffffffffffffff1916148061041257507f5b5e139f000000000000000000000000000000000000000000000000000000007bffffffffffffffffffffffffffffffffffffffffffffffffffffffff1916827bffffffffffffffffffffffffffffffffffffffffffffffffffffffff1916145b806104225750610421826108ac565b5b9050919050565b606060008054610438906119d8565b80601f0160208091040260200160405190810160405280929190818152602001828054610464906119d8565b80156104b15780601f10610486576101008083540402835291602001916104b1565b820191906000526020600020905b81548152906001019060200180831161049457829003601f168201915b5050505050905090565b60006104c682610916565b506104d08261099e565b9050919050565b6104e982826104e46109db565b6109e3565b5050565b60006104fb336006546109f5565b60016006600082825461050e9190611a38565b92505081905550600654905090565b600073ffffffffffffffffffffffffffffffffffffffff168273ffffffffffffffffffffffffffffffffffffffff160361058f5760006040517f64a0ae920000000000000000000000000000000000000000000000000000000081526004016105869190611614565b60405180910390fd5b60006105a3838361059e6109db565b610a13565b90508373ffffffffffffffffffffffffffffffffffffffff168173ffffffffffffffffffffffffffffffffffffffff1614610619578382826040517f64283d7b00000000000000000000000000000000000000000000000000000000815260040161061093929190611a6c565b60405180910390fd5b50505050565b61063a838383604051806020016040528060008152506107d9565b505050565b600061064a82610916565b9050919050565b6000600654905090565b60008073ffffffffffffffffffffffffffffffffffffffff168273ffffffffffffffffffffffffffffffffffffffff16036106ce5760006040517f89c62b640000000000000000000000000000000000000000000000000000000081526004016106c59190611614565b60405180910390fd5b600360008373ffffffffffffffffffffffffffffffffffffffff1673ffffffffffffffffffffffffffffffffffffffff168152602001908152602001600020549050919050565b604051806080016040528060578152602001611bb06057913981565b606060018054610740906119d8565b80601f016020809104026020016040519081016040528092919081815260200182805461076c906119d8565b80156107b95780601f1061078e576101008083540402835291602001916107b9565b820191906000526020600020905b81548152906001019060200180831161079c57829003601f168201915b5050505050905090565b6107d56107ce6109db565b8383610c2d565b5050565b6107e484848461051d565b6107f084848484610d9c565b50505050565b6060604051806080016040528060578152602001611bb0605791399050919050565b6000600560008473ffffffffffffffffffffffffffffffffffffffff1673ffffffffffffffffffffffffffffffffffffffff16815260200190815260200160002060008373ffffffffffffffffffffffffffffffffffffffff1673ffffffffffffffffffffffffffffffffffffffff16815260200190815260200160002060009054906101000a900460ff16905092915050565b60007f01ffc9a7000000000000000000000000000000000000000000000000000000007bffffffffffffffffffffffffffffffffffffffffffffffffffffffff1916827bffffffffffffffffffffffffffffffffffffffffffffffffffffffff1916149050919050565b60008061092283610f53565b9050600073ffffffffffffffffffffffffffffffffffffffff168173ffffffffffffffffffffffffffffffffffffffff160361099557826040517f7e27328900000000000000000000000000000000000000000000000000000000815260040161098c91906116aa565b60405180910390fd5b80915050919050565b60006004600083815260200190815260200160002060009054906101000a900473ffffffffffffffffffffffffffffffffffffffff169050919050565b600033905090565b6109f08383836001610f90565b505050565b610a0f828260405180602001604052806000815250611155565b5050565b600080610a1f84610f53565b9050600073ffffffffffffffffffffffffffffffffffffffff168373ffffffffffffffffffffffffffffffffffffffff1614610a6157610a60818486611171565b5b600073ffffffffffffffffffffffffffffffffffffffff168173ffffffffffffffffffffffffffffffffffffffff1614610af257610aa3600085600080610f90565b6001600360008373ffffffffffffffffffffffffffffffffffffffff1673ffffffffffffffffffffffffffffffffffffffff168152602001908152602001600020600082825403925050819055505b600073ffffffffffffffffffffffffffffffffffffffff168573ffffffffffffffffffffffffffffffffffffffff1614610b75576001600360008773ffffffffffffffffffffffffffffffffffffffff1673ffffffffffffffffffffffffffffffffffffffff168152602001908152602001600020600082825401925050819055505b846002600086815260200190815260200160002060006101000a81548173ffffffffffffffffffffffffffffffffffffffff021916908373ffffffffffffffffffffffffffffffffffffffff160217905550838573ffffffffffffffffffffffffffffffffffffffff168273ffffffffffffffffffffffffffffffffffffffff167fddf252ad1be2c89b69c2b068fc378daa952ba7f163c4a11628f55a4df523b3ef60405160405180910390a4809150509392505050565b600073ffffffffffffffffffffffffffffffffffffffff168273ffffffffffffffffffffffffffffffffffffffff1603610c9e57816040517f5b08ba18000000000000000000000000000000000000000000000000000000008152600401610c959190611614565b60405180910390fd5b80600560008573ffffffffffffffffffffffffffffffffffffffff1673ffffffffffffffffffffffffffffffffffffffff16815260200190815260200160002060008473ffffffffffffffffffffffffffffffffffffffff1673ffffffffffffffffffffffffffffffffffffffff16815260200190815260200160002060006101000a81548160ff0219169083151502179055508173ffffffffffffffffffffffffffffffffffffffff168373ffffffffffffffffffffffffffffffffffffffff167f17307eab39ab6107e8899845ad3d59bd9653f200f220920489ca2b5937696c3183604051610d8f91906114a3565b60405180910390a3505050565b60008373ffffffffffffffffffffffffffffffffffffffff163b1115610f4d578273ffffffffffffffffffffffffffffffffffffffff1663150b7a02610de06109db565b8685856040518563ffffffff1660e01b8152600401610e029493929190611af8565b6020604051808303816000875af1925050508015610e3e57506040513d601f19601f82011682018060405250810190610e3b9190611b59565b60015b610ec2573d8060008114610e6e576040519150601f19603f3d011682016040523d82523d6000602084013e610e73565b606091505b506000815103610eba57836040517f64a0ae92000000000000000000000000000000000000000000000000000000008152600401610eb19190611614565b60405180910390fd5b805181602001fd5b63150b7a0260e01b7bffffffffffffffffffffffffffffffffffffffffffffffffffffffff1916817bffffffffffffffffffffffffffffffffffffffffffffffffffffffff191614610f4b57836040517f64a0ae92000000000000000000000000000000000000000000000000000000008152600401610f429190611614565b60405180910390fd5b505b50505050565b60006002600083815260200190815260200160002060009054906101000a900473ffffffffffffffffffffffffffffffffffffffff169050919050565b8080610fc95750600073ffffffffffffffffffffffffffffffffffffffff168273ffffffffffffffffffffffffffffffffffffffff1614155b156110fd576000610fd984610916565b9050600073ffffffffffffffffffffffffffffffffffffffff168373ffffffffffffffffffffffffffffffffffffffff161415801561104457508273ffffffffffffffffffffffffffffffffffffffff168173ffffffffffffffffffffffffffffffffffffffff1614155b801561105757506110558184610818565b155b1561109957826040517fa9fbf51f0000000000000000000000000000000000000000000000000000000081526004016110909190611614565b60405180910390fd5b81156110fb57838573ffffffffffffffffffffffffffffffffffffffff168273ffffffffffffffffffffffffffffffffffffffff167f8c5be1e5ebec7d5bd14f71427d1e84f3dd0314c0f7b2291e5b200ac8c7c3b92560405160405180910390a45b505b836004600085815260200190815260200160002060006101000a81548173ffffffffffffffffffffffffffffffffffffffff021916908373ffffffffffffffffffffffffffffffffffffffff16021790555050505050565b61115f8383611235565b61116c6000848484610d9c565b505050565b61117c83838361132e565b61123057600073ffffffffffffffffffffffffffffffffffffffff168373ffffffffffffffffffffffffffffffffffffffff16036111f157806040517f7e2732890000000000000000000000000000000000000000000000000000000081526004016111e891906116aa565b60405180910390fd5b81816040517f177e802f000000000000000000000000000000000000000000000000000000008152600401611227929190611b86565b60405180910390fd5b505050565b600073ffffffffffffffffffffffffffffffffffffffff168273ffffffffffffffffffffffffffffffffffffffff16036112a75760006040517f64a0ae9200000000000000000000000000000000000000000000000000000000815260040161129e9190611614565b60405180910390fd5b60006112b583836000610a13565b9050600073ffffffffffffffffffffffffffffffffffffffff168173ffffffffffffffffffffffffffffffffffffffff16146113295760006040517f73c6ac6e0000000000000000000000000000000000000000000000000000000081526004016113209190611614565b60405180910390fd5b505050565b60008073ffffffffffffffffffffffffffffffffffffffff168373ffffffffffffffffffffffffffffffffffffffff16141580156113e657508273ffffffffffffffffffffffffffffffffffffffff168473ffffffffffffffffffffffffffffffffffffffff1614806113a757506113a68484610818565b5b806113e557508273ffffffffffffffffffffffffffffffffffffffff166113cd8361099e565b73ffffffffffffffffffffffffffffffffffffffff16145b5b90509392505050565b6000604051905090565b600080fd5b600080fd5b60007fffffffff0000000000000000000000000000000000000000000000000000000082169050919050565b61143881611403565b811461144357600080fd5b50565b6000813590506114558161142f565b92915050565b600060208284031215611471576114706113f9565b5b600061147f84828501611446565b91505092915050565b60008115159050919050565b61149d81611488565b82525050565b60006020820190506114b86000830184611494565b92915050565b600081519050919050565b600082825260208201905092915050565b60005b838110156114f85780820151818401526020810190506114dd565b60008484015250505050565b6000601f19601f8301169050919050565b6000611520826114be565b61152a81856114c9565b935061153a8185602086016114da565b61154381611504565b840191505092915050565b600060208201905081810360008301526115688184611515565b905092915050565b6000819050919050565b61158381611570565b811461158e57600080fd5b50565b6000813590506115a08161157a565b92915050565b6000602082840312156115bc576115bb6113f9565b5b60006115ca84828501611591565b91505092915050565b600073ffffffffffffffffffffffffffffffffffffffff82169050919050565b60006115fe826115d3565b9050919050565b61160e816115f3565b82525050565b60006020820190506116296000830184611605565b92915050565b611638816115f3565b811461164357600080fd5b50565b6000813590506116558161162f565b92915050565b60008060408385031215611672576116716113f9565b5b600061168085828601611646565b925050602061169185828601611591565b9150509250929050565b6116a481611570565b82525050565b60006020820190506116bf600083018461169b565b92915050565b6000806000606084860312156116de576116dd6113f9565b5b60006116ec86828701611646565b93505060206116fd86828701611646565b925050604061170e86828701611591565b9150509250925092565b60006020828403121561172e5761172d6113f9565b5b600061173c84828501611646565b91505092915050565b61174e81611488565b811461175957600080fd5b50565b60008135905061176b81611745565b92915050565b60008060408385031215611788576117876113f9565b5b600061179685828601611646565b92505060206117a78582860161175c565b9150509250929050565b600080fd5b600080fd5b7f4e487b7100000000000000000000000000000000000000000000000000000000600052604160045260246000fd5b6117f382611504565b810181811067ffffffffffffffff82111715611812576118116117bb565b5b80604052505050565b60006118256113ef565b905061183182826117ea565b919050565b600067ffffffffffffffff821115611851576118506117bb565b5b61185a82611504565b9050602081019050919050565b82818337600083830152505050565b600061188961188484611836565b61181b565b9050828152602081018484840111156118a5576118a46117b6565b5b6118b0848285611867565b509392505050565b600082601f8301126118cd576118cc6117b1565b5b81356118dd848260208601611876565b91505092915050565b60008060008060808587031215611900576118ff6113f9565b5b600061190e87828801611646565b945050602061191f87828801611646565b935050604061193087828801611591565b925050606085013567ffffffffffffffff811115611951576119506113fe565b5b61195d878288016118b8565b91505092959194509250565b600080604083850312156119805761197f6113f9565b5b600061198e85828601611646565b925050602061199f85828601611646565b9150509250929050565b7f4e487b7100000000000000000000000000000000000000000000000000000000600052602260045260246000fd5b600060028204905060018216806119f057607f821691505b602082108103611a0357611a026119a9565b5b50919050565b7f4e487b7100000000000000000000000000000000000000000000000000000000600052601160045260246000fd5b6000611a4382611570565b9150611a4e83611570565b9250828201905080821115611a6657611a65611a09565b5b92915050565b6000606082019050611a816000830186611605565b611a8e602083018561169b565b611a9b6040830184611605565b949350505050565b600081519050919050565b600082825260208201905092915050565b6000611aca82611aa3565b611ad48185611aae565b9350611ae48185602086016114da565b611aed81611504565b840191505092915050565b6000608082019050611b0d6000830187611605565b611b1a6020830186611605565b611b27604083018561169b565b8181036060830152611b398184611abf565b905095945050505050565b600081519050611b538161142f565b92915050565b600060208284031215611b6f57611b6e6113f9565b5b6000611b7d84828501611b44565b91505092915050565b6000604082019050611b9b6000830185611605565b611ba8602083018461169b565b939250505056fe697066733a2f2f62616679626569673337696f6972373673376d67356f6f6265746e636f6a636d3363336878617379643472766964346a71687934676b61686567342f3f66696c656e616d653d302d5055472e6a736f6ea2646970667358221220a4dcc146b81c84ed6beedda01c2ebe14c4713f4a1308711a571cc3e30831630e64736f6c63430008140033",
  "linkReferences": {},
  "deployedLinkReferences": {}
}