{
  "_format": "hh-sol-artifact-1",
  "contractName": "RandomIPFSNFT",
  "sourceName": "contracts/RandomIPFSNFT.sol",
  "abi": [
    {
      "inputs": [
        {
          "internalType": "address",
          "name": "vrfCoordinatorV2",
          "type": "address"
        },
        {
          "internalType": "uint64",
          "name": "subscriptionId",
          "type": "uint64"
        },
        {
          "internalType": "bytes32",
          "name": "gasLane",
          "type": "bytes32"
        },
        {
          "internalType": "uint32",
          "name": "callbackGasLimit",
          "type": "uint32"
        },
        {
          "internalType": "string[3]",
          "name": "dogTokenUris",
          "type": "string[3]"
        },
        {
          "internalType": "uint256",
          "name": "mintFee",
          "type": "uint256"
        }
      ],
      "stateMutability": "nonpayable",
      "type": "constructor"
    },
    {
      "inputs": [
        {
          "internalType": "address",
          "name": "sender",
          "type": "address"
        },
        {
          "internalType": "uint256",
          "name": "tokenId",
          "type": "uint256"
        },
        {
          "internalType": "address",
          "name": "owner",
          "type": "address"
        }
      ],
      "name": "ERC721IncorrectOwner",
      "type": "error"
    },
    {
      "inputs": [
        {
          "internalType": "address",
          "name": "operator",
          "type": "address"
        },
        {
          "internalType": "uint256",
          "name": "tokenId",
          "type": "uint256"
        }
      ],
      "name": "ERC721InsufficientApproval",
      "type": "error"
    },
    {
      "inputs": [
        {
          "internalType": "address",
          "name": "approver",
          "type": "address"
        }
      ],
      "name": "ERC721InvalidApprover",
      "type": "error"
    },
    {
      "inputs": [
        {
          "internalType": "address",
          "name": "operator",
          "type": "address"
        }
      ],
      "name": "ERC721InvalidOperator",
      "type": "error"
    },
    {
      "inputs": [
        {
          "internalType": "address",
          "name": "owner",
          "type": "address"
        }
      ],
      "name": "ERC721InvalidOwner",
      "type": "error"
    },
    {
      "inputs": [
        {
          "internalType": "address",
          "name": "receiver",
          "type": "address"
        }
      ],
      "name": "ERC721InvalidReceiver",
      "type": "error"
    },
    {
      "inputs": [
        {
          "internalType": "address",
          "name": "sender",
          "type": "address"
        }
      ],
      "name": "ERC721InvalidSender",
      "type": "error"
    },
    {
      "inputs": [
        {
          "internalType": "uint256",
          "name": "tokenId",
          "type": "uint256"
        }
      ],
      "name": "ERC721NonexistentToken",
      "type": "error"
    },
    {
      "inputs": [
        {
          "internalType": "address",
          "name": "have",
          "type": "address"
        },
        {
          "internalType": "address",
          "name": "want",
          "type": "address"
        }
      ],
      "name": "OnlyCoordinatorCanFulfill",
      "type": "error"
    },
    {
      "inputs": [
        {
          "internalType": "address",
          "name": "owner",
          "type": "address"
        }
      ],
      "name": "OwnableInvalidOwner",
      "type": "error"
    },
    {
      "inputs": [
        {
          "internalType": "address",
          "name": "account",
          "type": "address"
        }
      ],
      "name": "OwnableUnauthorizedAccount",
      "type": "error"
    },
    {
      "inputs": [],
      "name": "RandomIPFSNFT__NeedMoreETHSent",
      "type": "error"
    },
    {
      "inputs": [],
      "name": "RandomIPFSNFT__RangeOutOfBounds",
      "type": "error"
    },
    {
      "inputs": [],
      "name": "RandomIPFSNFT__TransferFailed",
      "type": "error"
    },
    {
      "anonymous": false,
      "inputs": [
        {
          "indexed": true,
          "internalType": "address",
          "name": "owner",
          "type": "address"
        },
        {
          "indexed": true,
          "internalType": "address",
          "name": "approved",
          "type": "address"
        },
        {
          "indexed": true,
          "internalType": "uint256",
          "name": "tokenId",
          "type": "uint256"
        }
      ],
      "name": "Approval",
      "type": "event"
    },
    {
      "anonymous": false,
      "inputs": [
        {
          "indexed": true,
          "internalType": "address",
          "name": "owner",
          "type": "address"
        },
        {
          "indexed": true,
          "internalType": "address",
          "name": "operator",
          "type": "address"
        },
        {
          "indexed": false,
          "internalType": "bool",
          "name": "approved",
          "type": "bool"
        }
      ],
      "name": "ApprovalForAll",
      "type": "event"
    },
    {
      "anonymous": false,
      "inputs": [
        {
          "indexed": false,
          "internalType": "uint256",
          "name": "_fromTokenId",
          "type": "uint256"
        },
        {
          "indexed": false,
          "internalType": "uint256",
          "name": "_toTokenId",
          "type": "uint256"
        }
      ],
      "name": "BatchMetadataUpdate",
      "type": "event"
    },
    {
      "anonymous": false,
      "inputs": [
        {
          "indexed": false,
          "internalType": "uint256",
          "name": "_tokenId",
          "type": "uint256"
        }
      ],
      "name": "MetadataUpdate",
      "type": "event"
    },
    {
      "anonymous": false,
      "inputs": [
        {
          "indexed": false,
          "internalType": "enum RandomIPFSNFT.Breed",
          "name": "dogBreed",
          "type": "uint8"
        },
        {
          "indexed": false,
          "internalType": "address",
          "name": "minter",
          "type": "address"
        }
      ],
      "name": "NFTMinted",
      "type": "event"
    },
    {
      "anonymous": false,
      "inputs": [
        {
          "indexed": true,
          "internalType": "uint256",
          "name": "requestId",
          "type": "uint256"
        },
        {
          "indexed": false,
          "internalType": "address",
          "name": "requester",
          "type": "address"
        }
      ],
      "name": "NFTRequested",
      "type": "event"
    },
    {
      "anonymous": false,
      "inputs": [
        {
          "indexed": true,
          "internalType": "address",
          "name": "previousOwner",
          "type": "address"
        },
        {
          "indexed": true,
          "internalType": "address",
          "name": "newOwner",
          "type": "address"
        }
      ],
      "name": "OwnershipTransferred",
      "type": "event"
    },
    {
      "anonymous": false,
      "inputs": [
        {
          "indexed": true,
          "internalType": "address",
          "name": "from",
          "type": "address"
        },
        {
          "indexed": true,
          "internalType": "address",
          "name": "to",
          "type": "address"
        },
        {
          "indexed": true,
          "internalType": "uint256",
          "name": "tokenId",
          "type": "uint256"
        }
      ],
      "name": "Transfer",
      "type": "event"
    },
    {
      "inputs": [
        {
          "internalType": "address",
          "name": "to",
          "type": "address"
        },
        {
          "internalType": "uint256",
          "name": "tokenId",
          "type": "uint256"
        }
      ],
      "name": "approve",
      "outputs": [],
      "stateMutability": "nonpayable",
      "type": "function"
    },
    {
      "inputs": [
        {
          "internalType": "address",
          "name": "owner",
          "type": "address"
        }
      ],
      "name": "balanceOf",
      "outputs": [
        {
          "internalType": "uint256",
          "name": "",
          "type": "uint256"
        }
      ],
      "stateMutability": "view",
      "type": "function"
    },
    {
      "inputs": [
        {
          "internalType": "uint256",
          "name": "tokenId",
          "type": "uint256"
        }
      ],
      "name": "getApproved",
      "outputs": [
        {
          "internalType": "address",
          "name": "",
          "type": "address"
        }
      ],
      "stateMutability": "view",
      "type": "function"
    },
    {
      "inputs": [
        {
          "internalType": "uint256",
          "name": "moddedRing",
          "type": "uint256"
        }
      ],
      "name": "getBreedFromModdedRing",
      "outputs": [
        {
          "internalType": "enum RandomIPFSNFT.Breed",
          "name": "",
          "type": "uint8"
        }
      ],
      "stateMutability": "pure",
      "type": "function"
    },
    {
      "inputs": [],
      "name": "getChanceArray",
      "outputs": [
        {
          "internalType": "uint256[3]",
          "name": "",
          "type": "uint256[3]"
        }
      ],
      "stateMutability": "pure",
      "type": "function"
    },
    {
      "inputs": [
        {
          "internalType": "uint256",
          "name": "index",
          "type": "uint256"
        }
      ],
      "name": "getDogTokenUris",
      "outputs": [
        {
          "internalType": "string",
          "name": "",
          "type": "string"
        }
      ],
      "stateMutability": "view",
      "type": "function"
    },
    {
      "inputs": [],
      "name": "getMintFee",
      "outputs": [
        {
          "internalType": "uint256",
          "name": "",
          "type": "uint256"
        }
      ],
      "stateMutability": "view",
      "type": "function"
    },
    {
      "inputs": [],
      "name": "getTokenCounter",
      "outputs": [
        {
          "internalType": "uint256",
          "name": "",
          "type": "uint256"
        }
      ],
      "stateMutability": "view",
      "type": "function"
    },
    {
      "inputs": [
        {
          "internalType": "address",
          "name": "owner",
          "type": "address"
        },
        {
          "internalType": "address",
          "name": "operator",
          "type": "address"
        }
      ],
      "name": "isApprovedForAll",
      "outputs": [
        {
          "internalType": "bool",
          "name": "",
          "type": "bool"
        }
      ],
      "stateMutability": "view",
      "type": "function"
    },
    {
      "inputs": [],
      "name": "name",
      "outputs": [
        {
          "internalType": "string",
          "name": "",
          "type": "string"
        }
      ],
      "stateMutability": "view",
      "type": "function"
    },
    {
      "inputs": [],
      "name": "owner",
      "outputs": [
        {
          "internalType": "address",
          "name": "",
          "type": "address"
        }
      ],
      "stateMutability": "view",
      "type": "function"
    },
    {
      "inputs": [
        {
          "internalType": "uint256",
          "name": "tokenId",
          "type": "uint256"
        }
      ],
      "name": "ownerOf",
      "outputs": [
        {
          "internalType": "address",
          "name": "",
          "type": "address"
        }
      ],
      "stateMutability": "view",
      "type": "function"
    },
    {
      "inputs": [
        {
          "internalType": "uint256",
          "name": "requestId",
          "type": "uint256"
        },
        {
          "internalType": "uint256[]",
          "name": "randomWords",
          "type": "uint256[]"
        }
      ],
      "name": "rawFulfillRandomWords",
      "outputs": [],
      "stateMutability": "nonpayable",
      "type": "function"
    },
    {
      "inputs": [],
      "name": "renounceOwnership",
      "outputs": [],
      "stateMutability": "nonpayable",
      "type": "function"
    },
    {
      "inputs": [],
      "name": "requestNFT",
      "outputs": [
        {
          "internalType": "uint256",
          "name": "requestId",
          "type": "uint256"
        }
      ],
      "stateMutability": "payable",
      "type": "function"
    },
    {
      "inputs": [
        {
          "internalType": "uint256",
          "name": "",
          "type": "uint256"
        }
      ],
      "name": "s_requestIdToSender",
      "outputs": [
        {
          "internalType": "address",
          "name": "",
          "type": "address"
        }
      ],
      "stateMutability": "view",
      "type": "function"
    },
    {
      "inputs": [],
      "name": "s_tokenCounter",
      "outputs": [
        {
          "internalType": "uint256",
          "name": "",
          "type": "uint256"
        }
      ],
      "stateMutability": "view",
      "type": "function"
    },
    {
      "inputs": [
        {
          "internalType": "address",
          "name": "from",
          "type": "address"
        },
        {
          "internalType": "address",
          "name": "to",
          "type": "address"
        },
        {
          "internalType": "uint256",
          "name": "tokenId",
          "type": "uint256"
        }
      ],
      "name": "safeTransferFrom",
      "outputs": [],
      "stateMutability": "nonpayable",
      "type": "function"
    },
    {
      "inputs": [
        {
          "internalType": "address",
          "name": "from",
          "type": "address"
        },
        {
          "internalType": "address",
          "name": "to",
          "type": "address"
        },
        {
          "internalType": "uint256",
          "name": "tokenId",
          "type": "uint256"
        },
        {
          "internalType": "bytes",
          "name": "data",
          "type": "bytes"
        }
      ],
      "name": "safeTransferFrom",
      "outputs": [],
      "stateMutability": "nonpayable",
      "type": "function"
    },
    {
      "inputs": [
        {
          "internalType": "address",
          "name": "operator",
          "type": "address"
        },
        {
          "internalType": "bool",
          "name": "approved",
          "type": "bool"
        }
      ],
      "name": "setApprovalForAll",
      "outputs": [],
      "stateMutability": "nonpayable",
      "type": "function"
    },
    {
      "inputs": [
        {
          "internalType": "bytes4",
          "name": "interfaceId",
          "type": "bytes4"
        }
      ],
      "name": "supportsInterface",
      "outputs": [
        {
          "internalType": "bool",
          "name": "",
          "type": "bool"
        }
      ],
      "stateMutability": "view",
      "type": "function"
    },
    {
      "inputs": [],
      "name": "symbol",
      "outputs": [
        {
          "internalType": "string",
          "name": "",
          "type": "string"
        }
      ],
      "stateMutability": "view",
      "type": "function"
    },
    {
      "inputs": [
        {
          "internalType": "uint256",
          "name": "tokenId",
          "type": "uint256"
        }
      ],
      "name": "tokenURI",
      "outputs": [
        {
          "internalType": "string",
          "name": "",
          "type": "string"
        }
      ],
      "stateMutability": "view",
      "type": "function"
    },
    {
      "inputs": [
        {
          "internalType": "address",
          "name": "from",
          "type": "address"
        },
        {
          "internalType": "address",
          "name": "to",
          "type": "address"
        },
        {
          "internalType": "uint256",
          "name": "tokenId",
          "type": "uint256"
        }
      ],
      "name": "transferFrom",
      "outputs": [],
      "stateMutability": "nonpayable",
      "type": "function"
    },
    {
      "inputs": [
        {
          "internalType": "address",
          "name": "newOwner",
          "type": "address"
        }
      ],
      "name": "transferOwnership",
      "outputs": [],
      "stateMutability": "nonpayable",
      "type": "function"
    },
    {
      "inputs": [],
      "name": "withdraw",
      "outputs": [],
      "stateMutability": "nonpayable",
      "type": "function"
    }
  ],
  "bytecode": "0x6101406040523480156200001257600080fd5b506040516200402e3803806200402e8339818101604052810190620000389190620007af565b336040518060400160405280600f81526020017f52616e646f6d2049504653204e465400000000000000000000000000000000008152506040518060400160405280600381526020017f52494e0000000000000000000000000000000000000000000000000000000000815250888073ffffffffffffffffffffffffffffffffffffffff1660808173ffffffffffffffffffffffffffffffffffffffff1681525050508160009081620000ec919062000aab565b508060019081620000fe919062000aab565b505050600073ffffffffffffffffffffffffffffffffffffffff168173ffffffffffffffffffffffffffffffffffffffff1603620001765760006040517f1e4fbdf70000000000000000000000000000000000000000000000000000000081526004016200016d919062000ba3565b60405180910390fd5b62000187816200021e60201b60201c565b508573ffffffffffffffffffffffffffffffffffffffff1660a08173ffffffffffffffffffffffffffffffffffffffff16815250508467ffffffffffffffff1660c08167ffffffffffffffff16815250508360e081815250508263ffffffff166101008163ffffffff168152505081600a90600362000208929190620002e4565b5080610120818152505050505050505062000bc0565b6000600760009054906101000a900473ffffffffffffffffffffffffffffffffffffffff16905081600760006101000a81548173ffffffffffffffffffffffffffffffffffffffff021916908373ffffffffffffffffffffffffffffffffffffffff1602179055508173ffffffffffffffffffffffffffffffffffffffff168173ffffffffffffffffffffffffffffffffffffffff167f8be0079c531659141344cd1fd0a4f28419497f9722a3daafe3b4186f6b6457e060405160405180910390a35050565b82805482825590600052602060002090810192821562000331579160200282015b82811115620003305782518290816200031f919062000aab565b509160200191906001019062000305565b5b50905062000340919062000344565b5090565b5b808211156200036857600081816200035e91906200036c565b5060010162000345565b5090565b5080546200037a90620008a4565b6000825580601f106200038e5750620003af565b601f016020900490600052602060002090810190620003ae9190620003b2565b5b50565b5b80821115620003cd576000816000905550600101620003b3565b5090565b6000604051905090565b600080fd5b600080fd5b600073ffffffffffffffffffffffffffffffffffffffff82169050919050565b60006200041282620003e5565b9050919050565b620004248162000405565b81146200043057600080fd5b50565b600081519050620004448162000419565b92915050565b600067ffffffffffffffff82169050919050565b62000469816200044a565b81146200047557600080fd5b50565b60008151905062000489816200045e565b92915050565b6000819050919050565b620004a4816200048f565b8114620004b057600080fd5b50565b600081519050620004c48162000499565b92915050565b600063ffffffff82169050919050565b620004e581620004ca565b8114620004f157600080fd5b50565b6000815190506200050581620004da565b92915050565b600080fd5b6000601f19601f8301169050919050565b7f4e487b7100000000000000000000000000000000000000000000000000000000600052604160045260246000fd5b6200055b8262000510565b810181811067ffffffffffffffff821117156200057d576200057c62000521565b5b80604052505050565b600062000592620003d1565b9050620005a0828262000550565b919050565b600067ffffffffffffffff821115620005c357620005c262000521565b5b602082029050919050565b600080fd5b600080fd5b600067ffffffffffffffff821115620005f657620005f562000521565b5b620006018262000510565b9050602081019050919050565b60005b838110156200062e57808201518184015260208101905062000611565b60008484015250505050565b6000620006516200064b84620005d8565b62000586565b90508281526020810184848401111562000670576200066f620005d3565b5b6200067d8482856200060e565b509392505050565b600082601f8301126200069d576200069c6200050b565b5b8151620006af8482602086016200063a565b91505092915050565b6000620006cf620006c984620005a5565b62000586565b90508060208402830185811115620006ec57620006eb620005ce565b5b835b818110156200073a57805167ffffffffffffffff8111156200071557620007146200050b565b5b80860162000724898262000685565b85526020850194505050602081019050620006ee565b5050509392505050565b600082601f8301126200075c576200075b6200050b565b5b60036200076b848285620006b8565b91505092915050565b6000819050919050565b620007898162000774565b81146200079557600080fd5b50565b600081519050620007a9816200077e565b92915050565b60008060008060008060c08789031215620007cf57620007ce620003db565b5b6000620007df89828a0162000433565b9650506020620007f289828a0162000478565b95505060406200080589828a01620004b3565b94505060606200081889828a01620004f4565b935050608087015167ffffffffffffffff8111156200083c576200083b620003e0565b5b6200084a89828a0162000744565b92505060a06200085d89828a0162000798565b9150509295509295509295565b600081519050919050565b7f4e487b7100000000000000000000000000000000000000000000000000000000600052602260045260246000fd5b60006002820490506001821680620008bd57607f821691505b602082108103620008d357620008d262000875565b5b50919050565b60008190508160005260206000209050919050565b60006020601f8301049050919050565b600082821b905092915050565b6000600883026200093d7fffffffffffffffffffffffffffffffffffffffffffffffffffffffffffffffff82620008fe565b620009498683620008fe565b95508019841693508086168417925050509392505050565b6000819050919050565b60006200098c62000986620009808462000774565b62000961565b62000774565b9050919050565b6000819050919050565b620009a8836200096b565b620009c0620009b78262000993565b8484546200090b565b825550505050565b600090565b620009d7620009c8565b620009e48184846200099d565b505050565b5b8181101562000a0c5762000a00600082620009cd565b600181019050620009ea565b5050565b601f82111562000a5b5762000a2581620008d9565b62000a3084620008ee565b8101602085101562000a40578190505b62000a5862000a4f85620008ee565b830182620009e9565b50505b505050565b600082821c905092915050565b600062000a806000198460080262000a60565b1980831691505092915050565b600062000a9b838362000a6d565b9150826002028217905092915050565b62000ab6826200086a565b67ffffffffffffffff81111562000ad25762000ad162000521565b5b62000ade8254620008a4565b62000aeb82828562000a10565b600060209050601f83116001811462000b23576000841562000b0e578287015190505b62000b1a858262000a8d565b86555062000b8a565b601f19841662000b3386620008d9565b60005b8281101562000b5d5784890151825560018201915060208501945060208101905062000b36565b8683101562000b7d578489015162000b79601f89168262000a6d565b8355505b6001600288020188555050505b505050505050565b62000b9d8162000405565b82525050565b600060208201905062000bba600083018462000b92565b92915050565b60805160a05160c05160e051610100516101205161341062000c1e60003960008181610caf0152610cd701526000610db101526000610d6d01526000610d8e01526000610d3101526000818161077001526107c401526134106000f3fe6080604052600436106101815760003560e01c80636e02007d116100d157806395d89b411161008a578063b88d4fde11610064578063b88d4fde14610577578063c87b56dd146105a0578063e985e9c5146105dd578063f2fde38b1461061a57610181565b806395d89b41146104e6578063a22cb46514610511578063a36f573b1461053a57610181565b80636e02007d146103f357806370a082311461041e578063715018a61461045b5780637a5caab3146104725780637abd25d11461049d5780638da5cb5b146104bb57610181565b806323b872dd1161013e57806342842e0e1161011857806342842e0e146103255780635dacf5f41461034e5780636352211e146103795780636879ba12146103b657610181565b806323b872dd146102a85780633af25975146102d15780633ccfd60b1461030e57610181565b806301ffc9a71461018657806306fdde03146101c3578063081812fc146101ee578063095ea7b31461022b5780630b21a83b146102545780631fe543e31461027f575b600080fd5b34801561019257600080fd5b506101ad60048036038101906101a891906124b0565b610643565b6040516101ba91906124f8565b60405180910390f35b3480156101cf57600080fd5b506101d86106a4565b6040516101e591906125a3565b60405180910390f35b3480156101fa57600080fd5b50610215600480360381019061021091906125fb565b610736565b6040516102229190612669565b60405180910390f35b34801561023757600080fd5b50610252600480360381019061024d91906126b0565b610752565b005b34801561026057600080fd5b50610269610768565b60405161027691906126ff565b60405180910390f35b34801561028b57600080fd5b506102a660048036038101906102a19190612862565b61076e565b005b3480156102b457600080fd5b506102cf60048036038101906102ca91906128be565b61082e565b005b3480156102dd57600080fd5b506102f860048036038101906102f391906125fb565b610930565b60405161030591906125a3565b60405180910390f35b34801561031a57600080fd5b506103236109e0565b005b34801561033157600080fd5b5061034c600480360381019061034791906128be565b610a94565b005b34801561035a57600080fd5b50610363610ab4565b60405161037091906129bc565b60405180910390f35b34801561038557600080fd5b506103a0600480360381019061039b91906125fb565b610adf565b6040516103ad9190612669565b60405180910390f35b3480156103c257600080fd5b506103dd60048036038101906103d891906125fb565b610af1565b6040516103ea9190612a4e565b60405180910390f35b3480156103ff57600080fd5b50610408610bd3565b60405161041591906126ff565b60405180910390f35b34801561042a57600080fd5b5061044560048036038101906104409190612a69565b610bdd565b60405161045291906126ff565b60405180910390f35b34801561046757600080fd5b50610470610c97565b005b34801561047e57600080fd5b50610487610cab565b60405161049491906126ff565b60405180910390f35b6104a5610cd3565b6040516104b291906126ff565b60405180910390f35b3480156104c757600080fd5b506104d0610ec4565b6040516104dd9190612669565b60405180910390f35b3480156104f257600080fd5b506104fb610eee565b60405161050891906125a3565b60405180910390f35b34801561051d57600080fd5b5061053860048036038101906105339190612ac2565b610f80565b005b34801561054657600080fd5b50610561600480360381019061055c91906125fb565b610f96565b60405161056e9190612669565b60405180910390f35b34801561058357600080fd5b5061059e60048036038101906105999190612bb7565b610fc9565b005b3480156105ac57600080fd5b506105c760048036038101906105c291906125fb565b610fe6565b6040516105d491906125a3565b60405180910390f35b3480156105e957600080fd5b5061060460048036038101906105ff9190612c3a565b6110f9565b60405161061191906124f8565b60405180910390f35b34801561062657600080fd5b50610641600480360381019061063c9190612a69565b61118d565b005b6000634906490660e01b7bffffffffffffffffffffffffffffffffffffffffffffffffffffffff1916827bffffffffffffffffffffffffffffffffffffffffffffffffffffffff1916148061069d575061069c82611213565b5b9050919050565b6060600080546106b390612ca9565b80601f01602080910402602001604051908101604052809291908181526020018280546106df90612ca9565b801561072c5780601f106107015761010080835404028352916020019161072c565b820191906000526020600020905b81548152906001019060200180831161070f57829003601f168201915b5050505050905090565b6000610741826112f5565b5061074b8261137d565b9050919050565b610764828261075f6113ba565b6113c2565b5050565b60095481565b7f000000000000000000000000000000000000000000000000000000000000000073ffffffffffffffffffffffffffffffffffffffff163373ffffffffffffffffffffffffffffffffffffffff161461082057337f00000000000000000000000000000000000000000000000000000000000000006040517f1cf993f4000000000000000000000000000000000000000000000000000000008152600401610817929190612cda565b60405180910390fd5b61082a82826113d4565b5050565b600073ffffffffffffffffffffffffffffffffffffffff168273ffffffffffffffffffffffffffffffffffffffff16036108a05760006040517f64a0ae920000000000000000000000000000000000000000000000000000000081526004016108979190612669565b60405180910390fd5b60006108b483836108af6113ba565b611574565b90508373ffffffffffffffffffffffffffffffffffffffff168173ffffffffffffffffffffffffffffffffffffffff161461092a578382826040517f64283d7b00000000000000000000000000000000000000000000000000000000815260040161092193929190612d03565b60405180910390fd5b50505050565b6060600a828154811061094657610945612d3a565b5b90600052602060002001805461095b90612ca9565b80601f016020809104026020016040519081016040528092919081815260200182805461098790612ca9565b80156109d45780601f106109a9576101008083540402835291602001916109d4565b820191906000526020600020905b8154815290600101906020018083116109b757829003601f168201915b50505050509050919050565b6109e861178e565b600047905060003373ffffffffffffffffffffffffffffffffffffffff1682604051610a1390612d9a565b60006040518083038185875af1925050503d8060008114610a50576040519150601f19603f3d011682016040523d82523d6000602084013e610a55565b606091505b5050905080610a90576040517fff2f968b00000000000000000000000000000000000000000000000000000000815260040160405180910390fd5b5050565b610aaf83838360405180602001604052806000815250610fc9565b505050565b610abc612422565b6040518060600160405280600a8152602001601e81526020016064815250905090565b6000610aea826112f5565b9050919050565b600080600090506000610b02610ab4565b905060005b6003811015610b9b57828510158015610b415750818160038110610b2e57610b2d612d3a565b5b602002015183610b3e9190612dde565b85105b15610b6357806002811115610b5957610b586129d7565b5b9350505050610bce565b818160038110610b7657610b75612d3a565b5b602002015183610b869190612dde565b92508080610b9390612e12565b915050610b07565b506040517f4b145a0700000000000000000000000000000000000000000000000000000000815260040160405180910390fd5b919050565b6000600954905090565b60008073ffffffffffffffffffffffffffffffffffffffff168273ffffffffffffffffffffffffffffffffffffffff1603610c505760006040517f89c62b64000000000000000000000000000000000000000000000000000000008152600401610c479190612669565b60405180910390fd5b600360008373ffffffffffffffffffffffffffffffffffffffff1673ffffffffffffffffffffffffffffffffffffffff168152602001908152602001600020549050919050565b610c9f61178e565b610ca96000611815565b565b60007f0000000000000000000000000000000000000000000000000000000000000000905090565b60007f0000000000000000000000000000000000000000000000000000000000000000341015610d2f576040517f5a4ade7b00000000000000000000000000000000000000000000000000000000815260040160405180910390fd5b7f000000000000000000000000000000000000000000000000000000000000000073ffffffffffffffffffffffffffffffffffffffff16635d3b1d307f00000000000000000000000000000000000000000000000000000000000000007f000000000000000000000000000000000000000000000000000000000000000060037f000000000000000000000000000000000000000000000000000000000000000060016040518663ffffffff1660e01b8152600401610df2959493929190612ed2565b6020604051808303816000875af1158015610e11573d6000803e3d6000fd5b505050506040513d601f19601f82011682018060405250810190610e359190612f3a565b9050336008600083815260200190815260200160002060006101000a81548173ffffffffffffffffffffffffffffffffffffffff021916908373ffffffffffffffffffffffffffffffffffffffff160217905550807f4e1c2f1eae56e29ec039a2b882eec626e6c420ed5a5b93a203c8b8b695e911b133604051610eb99190612669565b60405180910390a290565b6000600760009054906101000a900473ffffffffffffffffffffffffffffffffffffffff16905090565b606060018054610efd90612ca9565b80601f0160208091040260200160405190810160405280929190818152602001828054610f2990612ca9565b8015610f765780601f10610f4b57610100808354040283529160200191610f76565b820191906000526020600020905b815481529060010190602001808311610f5957829003601f168201915b5050505050905090565b610f92610f8b6113ba565b83836118db565b5050565b60086020528060005260406000206000915054906101000a900473ffffffffffffffffffffffffffffffffffffffff1681565b610fd484848461082e565b610fe084848484611a4a565b50505050565b6060610ff1826112f5565b50600060066000848152602001908152602001600020805461101290612ca9565b80601f016020809104026020016040519081016040528092919081815260200182805461103e90612ca9565b801561108b5780601f106110605761010080835404028352916020019161108b565b820191906000526020600020905b81548152906001019060200180831161106e57829003601f168201915b50505050509050600061109c611c01565b905060008151036110b15781925050506110f4565b6000825111156110e65780826040516020016110ce929190612fa3565b604051602081830303815290604052925050506110f4565b6110ef84611c18565b925050505b919050565b6000600560008473ffffffffffffffffffffffffffffffffffffffff1673ffffffffffffffffffffffffffffffffffffffff16815260200190815260200160002060008373ffffffffffffffffffffffffffffffffffffffff1673ffffffffffffffffffffffffffffffffffffffff16815260200190815260200160002060009054906101000a900460ff16905092915050565b61119561178e565b600073ffffffffffffffffffffffffffffffffffffffff168173ffffffffffffffffffffffffffffffffffffffff16036112075760006040517f1e4fbdf70000000000000000000000000000000000000000000000000000000081526004016111fe9190612669565b60405180910390fd5b61121081611815565b50565b60007f80ac58cd000000000000000000000000000000000000000000000000000000007bffffffffffffffffffffffffffffffffffffffffffffffffffffffff1916827bffffffffffffffffffffffffffffffffffffffffffffffffffffffff191614806112de57507f5b5e139f000000000000000000000000000000000000000000000000000000007bffffffffffffffffffffffffffffffffffffffffffffffffffffffff1916827bffffffffffffffffffffffffffffffffffffffffffffffffffffffff1916145b806112ee57506112ed82611c81565b5b9050919050565b60008061130183611ceb565b9050600073ffffffffffffffffffffffffffffffffffffffff168173ffffffffffffffffffffffffffffffffffffffff160361137457826040517f7e27328900000000000000000000000000000000000000000000000000000000815260040161136b91906126ff565b60405180910390fd5b80915050919050565b60006004600083815260200190815260200160002060009054906101000a900473ffffffffffffffffffffffffffffffffffffffff169050919050565b600033905090565b6113cf8383836001611d28565b505050565b60006008600084815260200190815260200160002060009054906101000a900473ffffffffffffffffffffffffffffffffffffffff16905060006009549050600060648460008151811061142b5761142a612d3a565b5b602002602001015161143d9190612ff6565b9050600061144a82610af1565b9050600954600960008282546114609190612dde565b925050819055506114718484611eed565b61153383600a83600281111561148a576114896129d7565b5b8154811061149b5761149a612d3a565b5b9060005260206000200180546114b090612ca9565b80601f01602080910402602001604051908101604052809291908181526020018280546114dc90612ca9565b80156115295780601f106114fe57610100808354040283529160200191611529565b820191906000526020600020905b81548152906001019060200180831161150c57829003601f168201915b5050505050611f0b565b7fab79897476febbd649710b1bd1dc3e93a316d3dee65f65b022ab89a4b7e206b58185604051611564929190613027565b60405180910390a1505050505050565b60008061158084611ceb565b9050600073ffffffffffffffffffffffffffffffffffffffff168373ffffffffffffffffffffffffffffffffffffffff16146115c2576115c1818486611f67565b5b600073ffffffffffffffffffffffffffffffffffffffff168173ffffffffffffffffffffffffffffffffffffffff161461165357611604600085600080611d28565b6001600360008373ffffffffffffffffffffffffffffffffffffffff1673ffffffffffffffffffffffffffffffffffffffff168152602001908152602001600020600082825403925050819055505b600073ffffffffffffffffffffffffffffffffffffffff168573ffffffffffffffffffffffffffffffffffffffff16146116d6576001600360008773ffffffffffffffffffffffffffffffffffffffff1673ffffffffffffffffffffffffffffffffffffffff168152602001908152602001600020600082825401925050819055505b846002600086815260200190815260200160002060006101000a81548173ffffffffffffffffffffffffffffffffffffffff021916908373ffffffffffffffffffffffffffffffffffffffff160217905550838573ffffffffffffffffffffffffffffffffffffffff168273ffffffffffffffffffffffffffffffffffffffff167fddf252ad1be2c89b69c2b068fc378daa952ba7f163c4a11628f55a4df523b3ef60405160405180910390a4809150509392505050565b6117966113ba565b73ffffffffffffffffffffffffffffffffffffffff166117b4610ec4565b73ffffffffffffffffffffffffffffffffffffffff1614611813576117d76113ba565b6040517f118cdaa700000000000000000000000000000000000000000000000000000000815260040161180a9190612669565b60405180910390fd5b565b6000600760009054906101000a900473ffffffffffffffffffffffffffffffffffffffff16905081600760006101000a81548173ffffffffffffffffffffffffffffffffffffffff021916908373ffffffffffffffffffffffffffffffffffffffff1602179055508173ffffffffffffffffffffffffffffffffffffffff168173ffffffffffffffffffffffffffffffffffffffff167f8be0079c531659141344cd1fd0a4f28419497f9722a3daafe3b4186f6b6457e060405160405180910390a35050565b600073ffffffffffffffffffffffffffffffffffffffff168273ffffffffffffffffffffffffffffffffffffffff160361194c57816040517f5b08ba180000000000000000000000000000000000000000000000000000000081526004016119439190612669565b60405180910390fd5b80600560008573ffffffffffffffffffffffffffffffffffffffff1673ffffffffffffffffffffffffffffffffffffffff16815260200190815260200160002060008473ffffffffffffffffffffffffffffffffffffffff1673ffffffffffffffffffffffffffffffffffffffff16815260200190815260200160002060006101000a81548160ff0219169083151502179055508173ffffffffffffffffffffffffffffffffffffffff168373ffffffffffffffffffffffffffffffffffffffff167f17307eab39ab6107e8899845ad3d59bd9653f200f220920489ca2b5937696c3183604051611a3d91906124f8565b60405180910390a3505050565b60008373ffffffffffffffffffffffffffffffffffffffff163b1115611bfb578273ffffffffffffffffffffffffffffffffffffffff1663150b7a02611a8e6113ba565b8685856040518563ffffffff1660e01b8152600401611ab094939291906130a5565b6020604051808303816000875af1925050508015611aec57506040513d601f19601f82011682018060405250810190611ae99190613106565b60015b611b70573d8060008114611b1c576040519150601f19603f3d011682016040523d82523d6000602084013e611b21565b606091505b506000815103611b6857836040517f64a0ae92000000000000000000000000000000000000000000000000000000008152600401611b5f9190612669565b60405180910390fd5b805181602001fd5b63150b7a0260e01b7bffffffffffffffffffffffffffffffffffffffffffffffffffffffff1916817bffffffffffffffffffffffffffffffffffffffffffffffffffffffff191614611bf957836040517f64a0ae92000000000000000000000000000000000000000000000000000000008152600401611bf09190612669565b60405180910390fd5b505b50505050565b606060405180602001604052806000815250905090565b6060611c23826112f5565b506000611c2e611c01565b90506000815111611c4e5760405180602001604052806000815250611c79565b80611c588461202b565b604051602001611c69929190612fa3565b6040516020818303038152906040525b915050919050565b60007f01ffc9a7000000000000000000000000000000000000000000000000000000007bffffffffffffffffffffffffffffffffffffffffffffffffffffffff1916827bffffffffffffffffffffffffffffffffffffffffffffffffffffffff1916149050919050565b60006002600083815260200190815260200160002060009054906101000a900473ffffffffffffffffffffffffffffffffffffffff169050919050565b8080611d615750600073ffffffffffffffffffffffffffffffffffffffff168273ffffffffffffffffffffffffffffffffffffffff1614155b15611e95576000611d71846112f5565b9050600073ffffffffffffffffffffffffffffffffffffffff168373ffffffffffffffffffffffffffffffffffffffff1614158015611ddc57508273ffffffffffffffffffffffffffffffffffffffff168173ffffffffffffffffffffffffffffffffffffffff1614155b8015611def5750611ded81846110f9565b155b15611e3157826040517fa9fbf51f000000000000000000000000000000000000000000000000000000008152600401611e289190612669565b60405180910390fd5b8115611e9357838573ffffffffffffffffffffffffffffffffffffffff168273ffffffffffffffffffffffffffffffffffffffff167f8c5be1e5ebec7d5bd14f71427d1e84f3dd0314c0f7b2291e5b200ac8c7c3b92560405160405180910390a45b505b836004600085815260200190815260200160002060006101000a81548173ffffffffffffffffffffffffffffffffffffffff021916908373ffffffffffffffffffffffffffffffffffffffff16021790555050505050565b611f078282604051806020016040528060008152506120f9565b5050565b80600660008481526020019081526020016000209081611f2b91906132df565b507ff8e1a15aba9398e019f0b49df1a4fde98ee17ae345cb5f6b5e2c27f5033e8ce782604051611f5b91906126ff565b60405180910390a15050565b611f72838383612115565b61202657600073ffffffffffffffffffffffffffffffffffffffff168373ffffffffffffffffffffffffffffffffffffffff1603611fe757806040517f7e273289000000000000000000000000000000000000000000000000000000008152600401611fde91906126ff565b60405180910390fd5b81816040517f177e802f00000000000000000000000000000000000000000000000000000000815260040161201d9291906133b1565b60405180910390fd5b505050565b60606000600161203a846121d6565b01905060008167ffffffffffffffff8111156120595761205861271f565b5b6040519080825280601f01601f19166020018201604052801561208b5781602001600182028036833780820191505090505b509050600082602001820190505b6001156120ee578080600190039150507f3031323334353637383961626364656600000000000000000000000000000000600a86061a8153600a85816120e2576120e1612fc7565b5b04945060008503612099575b819350505050919050565b6121038383612329565b6121106000848484611a4a565b505050565b60008073ffffffffffffffffffffffffffffffffffffffff168373ffffffffffffffffffffffffffffffffffffffff16141580156121cd57508273ffffffffffffffffffffffffffffffffffffffff168473ffffffffffffffffffffffffffffffffffffffff16148061218e575061218d84846110f9565b5b806121cc57508273ffffffffffffffffffffffffffffffffffffffff166121b48361137d565b73ffffffffffffffffffffffffffffffffffffffff16145b5b90509392505050565b600080600090507a184f03e93ff9f4daa797ed6e38ed64bf6a1f0100000000000000008310612234577a184f03e93ff9f4daa797ed6e38ed64bf6a1f010000000000000000838161222a57612229612fc7565b5b0492506040810190505b6d04ee2d6d415b85acef81000000008310612271576d04ee2d6d415b85acef8100000000838161226757612266612fc7565b5b0492506020810190505b662386f26fc1000083106122a057662386f26fc10000838161229657612295612fc7565b5b0492506010810190505b6305f5e10083106122c9576305f5e10083816122bf576122be612fc7565b5b0492506008810190505b61271083106122ee5761271083816122e4576122e3612fc7565b5b0492506004810190505b60648310612311576064838161230757612306612fc7565b5b0492506002810190505b600a8310612320576001810190505b80915050919050565b600073ffffffffffffffffffffffffffffffffffffffff168273ffffffffffffffffffffffffffffffffffffffff160361239b5760006040517f64a0ae920000000000000000000000000000000000000000000000000000000081526004016123929190612669565b60405180910390fd5b60006123a983836000611574565b9050600073ffffffffffffffffffffffffffffffffffffffff168173ffffffffffffffffffffffffffffffffffffffff161461241d5760006040517f73c6ac6e0000000000000000000000000000000000000000000000000000000081526004016124149190612669565b60405180910390fd5b505050565b6040518060600160405280600390602082028036833780820191505090505090565b6000604051905090565b600080fd5b600080fd5b60007fffffffff0000000000000000000000000000000000000000000000000000000082169050919050565b61248d81612458565b811461249857600080fd5b50565b6000813590506124aa81612484565b92915050565b6000602082840312156124c6576124c561244e565b5b60006124d48482850161249b565b91505092915050565b60008115159050919050565b6124f2816124dd565b82525050565b600060208201905061250d60008301846124e9565b92915050565b600081519050919050565b600082825260208201905092915050565b60005b8381101561254d578082015181840152602081019050612532565b60008484015250505050565b6000601f19601f8301169050919050565b600061257582612513565b61257f818561251e565b935061258f81856020860161252f565b61259881612559565b840191505092915050565b600060208201905081810360008301526125bd818461256a565b905092915050565b6000819050919050565b6125d8816125c5565b81146125e357600080fd5b50565b6000813590506125f5816125cf565b92915050565b6000602082840312156126115761261061244e565b5b600061261f848285016125e6565b91505092915050565b600073ffffffffffffffffffffffffffffffffffffffff82169050919050565b600061265382612628565b9050919050565b61266381612648565b82525050565b600060208201905061267e600083018461265a565b92915050565b61268d81612648565b811461269857600080fd5b50565b6000813590506126aa81612684565b92915050565b600080604083850312156126c7576126c661244e565b5b60006126d58582860161269b565b92505060206126e6858286016125e6565b9150509250929050565b6126f9816125c5565b82525050565b600060208201905061271460008301846126f0565b92915050565b600080fd5b7f4e487b7100000000000000000000000000000000000000000000000000000000600052604160045260246000fd5b61275782612559565b810181811067ffffffffffffffff821117156127765761277561271f565b5b80604052505050565b6000612789612444565b9050612795828261274e565b919050565b600067ffffffffffffffff8211156127b5576127b461271f565b5b602082029050602081019050919050565b600080fd5b60006127de6127d98461279a565b61277f565b90508083825260208201905060208402830185811115612801576128006127c6565b5b835b8181101561282a578061281688826125e6565b845260208401935050602081019050612803565b5050509392505050565b600082601f8301126128495761284861271a565b5b81356128598482602086016127cb565b91505092915050565b600080604083850312156128795761287861244e565b5b6000612887858286016125e6565b925050602083013567ffffffffffffffff8111156128a8576128a7612453565b5b6128b485828601612834565b9150509250929050565b6000806000606084860312156128d7576128d661244e565b5b60006128e58682870161269b565b93505060206128f68682870161269b565b9250506040612907868287016125e6565b9150509250925092565b600060039050919050565b600081905092915050565b6000819050919050565b61293a816125c5565b82525050565b600061294c8383612931565b60208301905092915050565b6000602082019050919050565b61296e81612911565b612978818461291c565b925061298382612927565b8060005b838110156129b457815161299b8782612940565b96506129a683612958565b925050600181019050612987565b505050505050565b60006060820190506129d16000830184612965565b92915050565b7f4e487b7100000000000000000000000000000000000000000000000000000000600052602160045260246000fd5b60038110612a1757612a166129d7565b5b50565b6000819050612a2882612a06565b919050565b6000612a3882612a1a565b9050919050565b612a4881612a2d565b82525050565b6000602082019050612a636000830184612a3f565b92915050565b600060208284031215612a7f57612a7e61244e565b5b6000612a8d8482850161269b565b91505092915050565b612a9f816124dd565b8114612aaa57600080fd5b50565b600081359050612abc81612a96565b92915050565b60008060408385031215612ad957612ad861244e565b5b6000612ae78582860161269b565b9250506020612af885828601612aad565b9150509250929050565b600080fd5b600067ffffffffffffffff821115612b2257612b2161271f565b5b612b2b82612559565b9050602081019050919050565b82818337600083830152505050565b6000612b5a612b5584612b07565b61277f565b905082815260208101848484011115612b7657612b75612b02565b5b612b81848285612b38565b509392505050565b600082601f830112612b9e57612b9d61271a565b5b8135612bae848260208601612b47565b91505092915050565b60008060008060808587031215612bd157612bd061244e565b5b6000612bdf8782880161269b565b9450506020612bf08782880161269b565b9350506040612c01878288016125e6565b925050606085013567ffffffffffffffff811115612c2257612c21612453565b5b612c2e87828801612b89565b91505092959194509250565b60008060408385031215612c5157612c5061244e565b5b6000612c5f8582860161269b565b9250506020612c708582860161269b565b9150509250929050565b7f4e487b7100000000000000000000000000000000000000000000000000000000600052602260045260246000fd5b60006002820490506001821680612cc157607f821691505b602082108103612cd457612cd3612c7a565b5b50919050565b6000604082019050612cef600083018561265a565b612cfc602083018461265a565b9392505050565b6000606082019050612d18600083018661265a565b612d2560208301856126f0565b612d32604083018461265a565b949350505050565b7f4e487b7100000000000000000000000000000000000000000000000000000000600052603260045260246000fd5b600081905092915050565b50565b6000612d84600083612d69565b9150612d8f82612d74565b600082019050919050565b6000612da582612d77565b9150819050919050565b7f4e487b7100000000000000000000000000000000000000000000000000000000600052601160045260246000fd5b6000612de9826125c5565b9150612df4836125c5565b9250828201905080821115612e0c57612e0b612daf565b5b92915050565b6000612e1d826125c5565b91507fffffffffffffffffffffffffffffffffffffffffffffffffffffffffffffffff8203612e4f57612e4e612daf565b5b600182019050919050565b6000819050919050565b612e6d81612e5a565b82525050565b600067ffffffffffffffff82169050919050565b612e9081612e73565b82525050565b600061ffff82169050919050565b612ead81612e96565b82525050565b600063ffffffff82169050919050565b612ecc81612eb3565b82525050565b600060a082019050612ee76000830188612e64565b612ef46020830187612e87565b612f016040830186612ea4565b612f0e6060830185612ec3565b612f1b6080830184612ec3565b9695505050505050565b600081519050612f34816125cf565b92915050565b600060208284031215612f5057612f4f61244e565b5b6000612f5e84828501612f25565b91505092915050565b600081905092915050565b6000612f7d82612513565b612f878185612f67565b9350612f9781856020860161252f565b80840191505092915050565b6000612faf8285612f72565b9150612fbb8284612f72565b91508190509392505050565b7f4e487b7100000000000000000000000000000000000000000000000000000000600052601260045260246000fd5b6000613001826125c5565b915061300c836125c5565b92508261301c5761301b612fc7565b5b828206905092915050565b600060408201905061303c6000830185612a3f565b613049602083018461265a565b9392505050565b600081519050919050565b600082825260208201905092915050565b600061307782613050565b613081818561305b565b935061309181856020860161252f565b61309a81612559565b840191505092915050565b60006080820190506130ba600083018761265a565b6130c7602083018661265a565b6130d460408301856126f0565b81810360608301526130e6818461306c565b905095945050505050565b60008151905061310081612484565b92915050565b60006020828403121561311c5761311b61244e565b5b600061312a848285016130f1565b91505092915050565b60008190508160005260206000209050919050565b60006020601f8301049050919050565b600082821b905092915050565b6000600883026131957fffffffffffffffffffffffffffffffffffffffffffffffffffffffffffffffff82613158565b61319f8683613158565b95508019841693508086168417925050509392505050565b6000819050919050565b60006131dc6131d76131d2846125c5565b6131b7565b6125c5565b9050919050565b6000819050919050565b6131f6836131c1565b61320a613202826131e3565b848454613165565b825550505050565b600090565b61321f613212565b61322a8184846131ed565b505050565b5b8181101561324e57613243600082613217565b600181019050613230565b5050565b601f8211156132935761326481613133565b61326d84613148565b8101602085101561327c578190505b61329061328885613148565b83018261322f565b50505b505050565b600082821c905092915050565b60006132b660001984600802613298565b1980831691505092915050565b60006132cf83836132a5565b9150826002028217905092915050565b6132e882612513565b67ffffffffffffffff8111156133015761330061271f565b5b61330b8254612ca9565b613316828285613252565b600060209050601f8311600181146133495760008415613337578287015190505b61334185826132c3565b8655506133a9565b601f19841661335786613133565b60005b8281101561337f5784890151825560018201915060208501945060208101905061335a565b8683101561339c5784890151613398601f8916826132a5565b8355505b6001600288020188555050505b505050505050565b60006040820190506133c6600083018561265a565b6133d360208301846126f0565b939250505056fea2646970667358221220dac89b2fb828556fa931b983673126535eef13bb3276f2d07b1d8cbbb00cc8a464736f6c63430008140033",
  "linkReferences": {},
  "deployedLinkReferences": {}
}